:020000041000EA
:1000000000B5324B212058609868022188439860DF
:10001000D860186158612E4B002199600221596106
:100020000121F02299502B49196001219960352056
:1000300000F044F80222904214D00621196600F024
:1000400034F8196E01211966002018661A6600F04E
:100050002CF8196E196E196E052000F02FF8012189
:100060000842F9D1002199601B49196000215960AB
:100070001A491B48016001219960EB211966A021F2
:10008000196600F012F800219960164914480160C1
:100090000121996001BC002800D000471248134993
:1000A000086003C880F30888084703B5996A0420EC
:1000B0000142FBD001200142F8D103BD02B5186610
:1000C0001866FFF7F2FF186E186E02BD00000240BE
:1000D000000000180000070000035F00212200005C
:1000E000F4000018222000A00001001008ED00E03C
:1000F00000000000000000000000000074B24E7A12
:1001000000200420F7010010C3010010C5010010F9
:10011000C1010010C1010010C1010010C101001097
:10012000C1010010C1010010C1010010C701001081
:10013000C1010010C1010010C9010010CB01001065
:10014000CD010010CD010010CD010010CD01001037
:10015000CD010010CD010010CD010010CD01001027
:10016000CD010010CD010010CD010010CD01001017
:10017000CD010010CD010010CD010010CD01001007
:10018000CD010010CD010010CD010010CD010010F7
:10019000CD010010CD010010CD010010CD010010E7
:1001A000CD010010CD010010CD010010CD010010D7
:1001B000CD010010CD010010CD010010CD010010C7
:1001C00000BE00BE00BE00BE00BE00BE00F04BF888
:1001D000103800BEF2EB8871289A0010549A001073
:1001E0003402001090A31AE700202149086006C8D5
:1001F00081F3088810471F48006800282FD10DA4FC
:100200000ECC002902D000F012F8F9E71A491B4A77
:10021000002000E001C19142FCD1194988471949E9
:1002200088471949884700BEFDE701C901C29A42C3
:10023000FBD37047549A0010C0000020D405002062
:10024000689F00100000042000000420689F001038
:1002500000100420001004200000000070470B482C
:1002600004F084F80047EFF30580C0B27047000047
:1002700008ED00E0000000D0D8050020481700205D
:10028000292800100D030010052900105756000002
:1002900006005250ABB36053EC9100100600525070
:1002A000861C0302FC910010060052505422A29DAD
:1002B0000492001005005250DE65F468689F00103B
:1002C000F8B5C04610B5064C2378002B07D1054B76
:1002D000002B02D0044800E000BF0123237010BDB2
:1002E000E00600200000000088830010044B10B5D9
:1002F000002B03D00349044800E000BF10BDC046F6
:1003000000000000E40600208883001070B5FA2089
:100310000121800002F028FF05F050F905F01EFBD6
:1003200000F01AF800F061F800F02DFE00240CE057
:10033000322001F09BFED0252D064026AE613220F2
:1003400001F094FE6E610134E4B2042CF0D902F0A5
:10035000C9FE00F0D7FFFAE710B50021062001F032
:1003600017F8062001F024F8D02424064023636205
:1003700063610021072001F00BF8072001F018F855
:1003800080236362636110BD70B5092001F010F82D
:10039000D02424068025AD00A5610321092000F0AA
:1003A000F7FF65621A2001F003F8012200211A20EC
:1003B00000F0D4FF8023DB04A362242000F0F8FFC8
:1003C0000025A56100220121242000F0C7FF6562FD
:1003D000082000F0EDFF00220121082000F0BEFF00
:1003E00080235B006362636270BD10B5FFF7CCFFD2
:1003F00010BDD0231B068022D2049A615A62704736
:1004000010B5012200211A2000F0A8FFD0231B06FE
:100410008022D2049A6210BD10B5D0231B06802220
:1004200092005A61D0231B065B685B01FAD5142049
:1004300001F01CFE10BD10B5D0231B0680229200D7
:100440009A61D0231B065B685B01FAD4FFF7D1FFEA
:10045000052001F00BFEFFF7D3FF10BD70B5D024CF
:1004600024060025A56180267600A66206200021CC
:1004700001F0D0FD65610620002101F0CBFD666230
:100480000620002101F0C6FDA56170BD70B5D02425
:1004900024060026A66180256D00656206200021E5
:1004A00001F0B8FD66610620002101F0B3FDA562F0
:1004B0000620002101F0AEFD70BD70B5D0242406E9
:1004C0000025A56180235B0063620620002101F006
:1004D000A1FD65610620002101F09CFDA56170BDB4
:1004E00070B5D02424060025A56180235B00A3629B
:1004F0000620002101F08EFD65610620002101F03B
:1005000089FDA56170BD70B5D024240680235B00F1
:10051000A3620025A5610620002101F07BFD656135
:100520000620002101F076FD6368DB0505D400207C
:10053000D0231B0600229A6170BD0120F8E7F8B5B0
:100540000400D0231B0600229A61002515E0D02369
:100550001B06802252005A620620002101F05AFD3B
:10056000D0263606002777610620002101F052FDD3
:10057000B7616400E4B20135EDB2072D08D863B26B
:10058000002BE4DAD0231B06802252009A62E3E7B4
:10059000F8BDF8B50500D0231B06802252009A62F0
:1005A00000229A61002418E02B785B002B70062053
:1005B000002101F02FFDD02636067268120A0123B1
:1005C00013402A7813432B700027776106200021FF
:1005D00001F020FDB7610134E4B2072CE4D9F8BD85
:1005E00010B50220002101F015FD10BD70B50024EA
:1005F0000AE0FFF7F5FFD0252D0600266E61FFF714
:10060000EFFFAE610134A4B2AF231B019C42F0D3D3
:1006100070BD70B5FFF722FFD02424068026760037
:10062000A6620620002101F0F5FC00256561062088
:10063000002101F0EFFCA56166620620002101F0B7
:10064000E9FC65610620002101F0E4FCA561A662D9
:100650000620002101F0DEFC65610620002101F08A
:10066000D9FCA56166620620002101F0D3FC65611A
:100670000620002101F0CEFCA56166620620002163
:1006800001F0C8FC65610620002101F0C3FCA561F2
:10069000A6620620002101F0BDFC65610620002154
:1006A00001F0B8FCA561A6620620002101F0B2FCB1
:1006B00065610620002101F0ADFCFFF7E7FEA561B2
:1006C000A6620620002101F0A5FC6561062000213C
:1006D00001F0A0FCA5610620002101F09BFC002098
:1006E00070BDD0231B06802252005A6200229A61FC
:1006F00000207047F0B5C64600B505000E00170093
:10070000FFF7ACFE3020FFF71AFFFFF7FCFE0400F6
:10071000012809D02800FFF712FFFFF7F4FE0400BC
:10072000012804D0002508E0FFF7B0FE13E0FFF732
:10073000ADFE10E00135ADB24646BD420FD2731C8E
:1007400098463078FFF7FBFEFFF7DDFE0400012836
:10075000F0D1FFF79BFE200080BCB846F0BD5520CD
:10076000FFF7EDFEFFF7CFFE0400012805D0FFF7ED
:100770008DFEFFF73BFF0024EDE7FFF787FEEAE77A
:10078000F8B5CE46474680B50E001500030B02248F
:100790001C4001221A409146030A0F271F40C3B292
:1007A0009846FFF75BFE4B461C4340202043C0B2F7
:1007B000FFF7C5FEFFF7A7FE0400012816D040464C
:1007C000FFF7BDFEFFF79FFE0400012811D0FFF7E1
:1007D00045FE50203843C0B2FFF7B1FEFFF793FE4D
:1007E000040001280CD1FFF751FE19E0FFF74EFE7F
:1007F00016E0FFF74BFE13E0FFF75FFE25003E001B
:100800006C1EA4B2002D08D0771C3000FFF7C1FE8B
:10081000002CF1D1FFF764FEF0E7FFF737FE00246C
:100820002000C0BCB946B046F8BDF0B5D6464F462C
:100830004646C0B590B080460F001600002399468A
:1008400010E0402C1ED1402239005046FFF752FFE5
:100850004B460343DBB299463F19361BB6B24444BC
:10086000A3B29846002E2CD043469A09D3B29A469A
:100870003F2543461D4040235B1BDCB2B442E0D918
:10088000F4B2DEE7FF201040800140226946FFF706
:1008900077FF4B460343DBB29946002305E0EA1895
:1008A000F95C684681540133DBB2A342F7D340229E
:1008B00069465046FFF71EFF4B460343DBB299469D
:1008C000CAE7484610B0E0BCBA46B146A846F0BDFB
:1008D000F8B507000E001400FFF7C0FD3820FFF741
:1008E0002EFEFFF710FE0500012817D03800FFF795
:1008F00026FEFFF708FE0500012812D02300013C68
:10090000A4B2002B14D0771C3078FFF718FEFFF745
:10091000FAFD0500012807D03E00EFE7FFF7B6FD1E
:1009200004E0FFF7B3FD01E0FFF7B0FD2800F8BDDC
:10093000FF20FFF704FEFFF7E6FD0500012805D0C4
:10094000FFF7A4FDFFF752FE0025EFE7FFF79EFD3E
:10095000ECE7F0B5C64600B50E001500030B012408
:100960001C40030A0F271F40C3B29846FFF776FDCD
:1009700044202043C0B2FFF7E2FDFFF7C4FD0400AE
:10098000012816D04046FFF7DAFDFFF7BCFD040052
:10099000012811D0FFF762FD50203843C0B2FFF7A5
:1009A000CEFDFFF7B0FD040001280CD1FFF76EFD6E
:1009B00019E0FFF76BFD16E0FFF768FD13E0FFF7A6
:1009C0007CFD25003E006C1EA4B2002D08D0771CD3
:1009D0003000FFF7DEFD002CF1D1FFF781FDF0E7DD
:1009E000FFF754FD0024200080BCB846F0BDF0B5F0
:1009F000D6464F464646C0B590B080460F0016001A
:100A00000023994610E0402C1ED140223900504668
:100A1000FFF75EFF4B460343DBB299463F19361B97
:100A2000B6B24444A3B29846002E2CD043469A094D
:100A3000D3B29A463F2543461D4040235B1BDCB2A0
:100A4000B442E0D9F4B2DEE7FF201040800140223A
:100A50006946FFF77EFF4B460343DBB2994600230E
:100A600005E0EA18F95C684681540133DBB2A34221
:100A7000F7D3402269465046FFF72AFF4B4603430F
:100A8000DBB29946CAE7484610B0E0BCBA46B14668
:100A9000A846F0BDF0B5D6464F464646C0B590B024
:100AA00080460F0016000023994610E0402C1ED10E
:100AB000402239005046FFF70BFF4B460343DBB2A1
:100AC00099463F19361BB6B24444A3B29846002E4D
:100AD0002CD043469A09D3B29A463F2543461D403F
:100AE00040235B1BDCB2B442E0D9F4B2DEE7FF2066
:100AF0001040800140226946FFF72BFF4B4603431D
:100B0000DBB29946002305E0EA18F95C6846815497
:100B10000133DBB2A342F7D3402269465046FFF7C8
:100B2000D7FE4B460343DBB29946CAE7484610B0AE
:100B3000E0BCBA46B146A846F0BDF0B5C64600B521
:100B40000E001500030B01241C40030A0F271F4051
:100B5000C3B29846FFF782FC46202043C0B2FFF79D
:100B6000EEFCFFF7D0FC0400012816D04046FFF74A
:100B7000E6FCFFF7C8FC0400012811D0FFF76EFC6B
:100B800050203843C0B2FFF7DAFCFFF7BCFC04008A
:100B900001280CD1FFF77AFC19E0FFF777FC16E08B
:100BA000FFF774FC13E0FFF788FC25003E006C1E85
:100BB000A4B2002D08D0771C3000FFF7EAFC002C0F
:100BC000F1D1FFF78DFCF0E7FFF760FC0024200077
:100BD00080BCB846F0BD70B50500FFF73FFC0F20A4
:100BE000FFF7ADFCFFF78FFC040001280ED02800B2
:100BF000FFF7A5FCFFF787FC0400012809D0FFF7E9
:100C000045FCFFF7F3FC0024200070BDFFF73EFC1D
:100C1000FAE7FFF73BFCF7E770B50D2000F0C8FBE3
:100C2000002201210D2000F099FBD024240680230E
:100C30009B01A3620E2000F0BBFB8025ED016561E6
:100C4000002201210E2000F089FB65620F2000F0D8
:100C5000AFFB002201210F2000F080FB80231B024C
:100C6000A361A36270BD70B50A20002101F0D2F922
:100C7000002201210F2000F071FBD02424068025E2
:100C80002D02A5628026F60166610A20002101F08E
:100C9000C1F9A56165620A20002101F0BBF90A20B3
:100CA000002101F0B7F9A6610A20002101F0B2F994
:100CB00070BD70B50A20002101F0ACF9D0242406E3
:100CC00080252D02A56165628023DB0163610A2016
:100CD000002101F09FF9002201210F2000F03EFBCE
:100CE000A5620A20002101F095F90A20002101F0F7
:100CF00091F970BD70B50A20002101F08BF9D02464
:100D0000240680231B02A36163620A20002101F0F4
:100D100081F98025ED0165610A20002101F07AF951
:100D2000A5610A20002101F075F970BD70B50A2097
:100D3000002101F06FF9002201210F2000F00EFBCD
:100D4000D024240680231B02A3620A20002101F084
:100D500061F98025ED0165610A20002101F05AF951
:100D6000A5610A20002101F055F970BD10B50A20D7
:100D7000002101F04FF9D024240680231B02A36236
:100D80008023DB0163610A20002101F043F96368DD
:100D90001B040BD40024D0231B068022D2019A61AD
:100DA0000A20002101F036F9200010BD0124F2E7ED
:100DB000F8B50400D0231B068022D2019A610025D9
:100DC0001BE0002201210F2000F0C8FAD0231B06EF
:100DD000802212029A626400E4B20A20002101F02B
:100DE00019F9D02636068027FF0177610A200021F5
:100DF00001F010F9B7610135EDB2072D09D863B2E2
:100E0000002BDEDBD0231B06802212029A615A627D
:100E1000E1E70A20002101F0FDF8F8BD70B50A20D5
:100E2000002101F0F7F8D0231B06802212029A62FB
:100E30000025002406E0D0231B068022D2019A61FF
:100E40000134E4B2072C15D80A20002101F0E2F8A1
:100E5000D02636068023DB0173610A20002101F0D1
:100E6000D9F86D00EDB273681B04E4D501231D436E
:100E7000EDB2E0E70A20002101F0CCF8280070BDB7
:100E8000F8B504000F001600FFF7EDFE9020FFF705
:100E90008FFFFFF76BFF0500012809D02000FFF747
:100EA00087FFFFF763FF0500012804D0002407E057
:100EB000FFF7FFFE17E0FFF7FCFE14E00134E4B299
:100EC000B4420DD2385DFFF773FFFFF74FFF050007
:100ED0000128F3D1731E9C42F0D0FFF7EAFE02E036
:100EE000FFF7E7FE00252800F8BDF8B505000F0064
:100EF0001600FFF7B8FE9020FFF75AFFFFF736FF06
:100F00000400012813D02800FFF752FFFFF72EFF3F
:100F1000040001280ED0FFF7A6FE9120FFF748FF3E
:100F2000FFF724FF0400012807D000240CE0FFF79E
:100F3000C0FE18E0FFF7BDFE15E0FFF7BAFE12E0B5
:100F4000FFF7F4FE0134E4B2B44209D23D19FFF7D1
:100F500065FF2870731E9C42F2D0FFF7CBFEF1E7CD
:100F6000FFF7A7FE00242000F8BD00B583B00023E2
:100F70006A46137124335371022201A90120FFF73D
:100F80007FFF03B000BD10B5FFF746FEFFF7EDFF92
:100F900010BD000030B583B0002504E0184B9C4222
:100FA00013D90135EDB2022D0FD80024D0231B0632
:100FB0005B689B04F2D56420002101F02BF801341A
:100FC000A4B20F4B9C42F1D9E8E7032D15D00222C1
:100FD00001A90020FFF789FF6B461879000200B2D3
:100FE0005B79184303F0F8FC0022FE239B0503F015
:100FF00082FC03F039FD03B030BD0020FBE7C046A2
:101000008813000010B5064B9C466044002303E0A3
:10101000C45CCC5401339BB29342F9D310BDC0469B
:10102000000004107047000000B583B009E0154BC4
:101030008021C9005A5A501C585269460731097814
:10104000995401216B46D81D04F048FC00B20028D9
:101050000DDD0C4A0C4BD35C002BE8D11300802231
:10106000D20000219952084A01319954DFE7054A1C
:10107000054BD35C012B01D003B000BD024B022114
:10108000D154F9E7FC0600200404000030B587B015
:10109000974B1B78AA2B01D007B030BD944B5B78DF
:1010A000312B04D8F8D89B00924AD3589F46B02BD6
:1010B00000D100E1B12B19D18D4CA3781B02E0784F
:1010C000184323791B0262791A4380239B00AA21CB
:1010D000E154894B0021E154A11DFFF7A3FF8023B8
:1010E0009B00E018022104F08FFBD5E7A02BD3D1A1
:1010F000FFF750FF04F058F802000B007F4901A8E9
:1011000003F008F90A2101A804F07EFBC4E7FFF709
:10111000E8FAFFF790F9764880239B00AA22C25490
:10112000754B0022C254013B9C466044022104F0EE
:101130006BFBB1E7FFF7D5FAFFF77DF9FFF76CF925
:10114000FFF767FAFF20FFF746FD01280ED0684839
:1011500080239B00AA22C254674B0022C254013B49
:101160009C466044022104F04FFB95E760488023D1
:101170009B00AA22C254604B3632C254013B9C46AB
:101180006044022104F040FB86E7594CA3781B021F
:10119000E07818432179090265790D4380239B008B
:1011A000AA22E254564BE1182A00FFF7E9FA524B03
:1011B000E054A91C013BE01804F026FB6CE74C4C02
:1011C000A3781B02E078184323791B0262791A4343
:1011D00080239B00AA21E154A11DFFF726FB464B6B
:1011E000E054013BE018022104F00EFB54E7404CB0
:1011F000A3781B02E07818432179090265790D4331
:1012000080239B00AA22E2543D4BE1182A00FFF7FD
:10121000A0FB394BE054A91C013BE01804F0F4FAA0
:101220003AE7334CA3781B02E078184323791B027A
:1012300062791A4380239B00AA21E154A11DFFF784
:10124000D6FB2D4BE054013BE018022104F0DCFA00
:1012500022E7274CA3781B02E07818432179090282
:1012600065790D4380239B00AA22E254244BE118A8
:101270002A00FFF762FC204BE054A91C013BE01858
:1012800004F0C2FA08E71A4CA3781B02E07818436E
:1012900023791B0262791A4380239B00AA21E1541F
:1012A000A11DFFF7F7FB144BE054013BE0180221AE
:1012B00004F0AAFAF0E60E4CA3781B02E07818437B
:1012C0002179090265790D4380239B00AA22E2540B
:1012D000094B0022E2540A4BE1182A00FFF792FE64
:1012E000A91C80239B00E01804F08EFAD4E6C046C7
:1012F000FC0600208C83001001020000888300108F
:101300000202000010B5FFF78FFE064A064BD35CC1
:10131000022B00D010BDFFF7B9FE024A024B00219C
:10132000D154F7E7FC0600200404000010B5830048
:10133000084A944663441C6840226240C02414401A
:101340008022520113431C60C000034B9C46604442
:10135000416010BD04C001400040014080000B4BC3
:101360009C46604400290DD00823002A0CD004229A
:101370001343026853400C22134080225201104351
:10138000036070470023F0E70022F1E704C001404A
:101390008000064B9C466044090103685940302395
:1013A000194080235B0118430160704704C001406D
:1013B00010B501238340D022120693629361052168
:1013C000FFF7B4FF10BD0000EFF3108072B6034BBF
:1013D0001B68002BFBD0BFF35F8F70472C0100D040
:1013E000BFF35F8F024B00221A6080F310887047B2
:1013F0002C0100D0F8B506000C001500FFF7E4FF43
:10140000E308F718F15C07222240012393400B42C6
:1014100005D1DBB20B433B70FFF7E2FFF8BD2100C3
:10142000280001F091FAF0B583B006000191140094
:101430001F00FFF7C9FF00E00134BC420CD8E308ED
:10144000F518F35C0721214001228A401A42F3D1AA
:10145000D2B21A432A7001E001246442FFF7C0FFB0
:10146000002C02DB200003B0F0BD019B002BF9D063
:10147000089801F069FA0000034B1B68022018402D
:10148000431E9841C0B2704700C00640002307E0E9
:10149000054A9A189200BFF35F8F00211160013353
:1014A0001F2BF5D97047C04640000034054A10781C
:1014B000431CDBB21370172B02D9130010221A70D1
:1014C0007047C046C004002000B583B00100044B43
:1014D00000931F2318220348FFF7A5FF03B000BDA8
:1014E000548400104C10002070B504000D0006203C
:1014F00001F044FBC000290002F08CFFC60908D0AF
:101500000E4B9E4217D87F23184001303500460805
:1015100000E001256562A6622C348020800104432E
:1015200000232360062001F029FB8000A90189190E
:1015300002F070FF70BD0026014DEBE7FEFF0000DA
:10154000FFFF0000002909D00A22064B9C46604498
:10155000434258414000044BC2527047802252001F
:10156000F3E7C0460080FCBF2817002070B50500D7
:101570000C00062001F002FB002829D0164B9D42EA
:1015800027D08022D203154B1A60154B1A60154BD9
:101590009B6811009943FAD100212800FFF7D2FF80
:1015A00021002800FFF7A0FF2C002C34E96A6022FC
:1015B0004A406E21114080225201224311600A4BA1
:1015C0002B6380239B01234310221A600323AB6407
:1015D00070BD80221204D6E70080034000E0004086
:1015E00000F0004000C000400103000070B505009D
:1015F0000C00080000F0CAFD200000F0AFFE084912
:10160000200000F0EFFDFFF751FF064B9C466044C1
:10161000800068602C75A400034BE55070BDC04687
:101620003119001040000034F01400200A4B1A68F1
:10163000EFF3108172B61368002BFCD0BFF35F8FFD
:10164000054B1B68BFF35F8F00221A6081F310887F
:1016500040BF0020002170470C17002010B5002962
:1016600022D003681B7B99421ED8174B9C466144CD
:10167000090183689C4661440C684968002A19D0B6
:1016800003681B7B9A4215D883680F4884466244DE
:1016900012019A1810685368020001208B4201D889
:1016A0000ED00020C0B210BD084B094A3B210948AA
:1016B00001F02CF9054B064A3B21064801F026F9BA
:1016C000A242EFD8EDE7C046FFFFFF0FB484001041
:1016D000608700108484001010B500291ED0037BA1
:1016E00099421BD84B005B18033B0468A446634433
:1016F000002919D0002A1DD0914221D0002A25D0DE
:10170000047BA24222D804685000801803382018B5
:101710008170197800291FD11A7010BD104B114A21
:101720006921114801F0F2F8104B114A70310E484E
:1017300001F0ECF80F4B0E4A71210B4801F0E6F86E
:101740000D4B0B4A7221084801F0E0F8044B054AA2
:101750006921054801F0DAF841701A70DDE7C046EA
:10176000E8840010CC870010048500104485001028
:10177000A8870010508500105C85001070B5060029
:101780000D001400002914D0002A14D0806873685A
:101790009847002806D0220029003000FFF79CFF60
:1017A000280007E02A0021003000FFF795FF200005
:1017B00000E0100070BD0800FCE70000F0B583B049
:1017C0000500009201930AAB1C780BAB1F78002C2C
:1017D00026D003685A7B944207D10123002B19D1EC
:1017E000002C3BD1200003B0F0BD002C0CD01A7BA4
:1017F000944209D81A6863001B19033BD3189B78DD
:10180000002BEBD00123E9E73E4B3F4A69213F48DB
:1018100001F07CF83E4B3F4A65213F4801F076F8E5
:1018200003689C7B002CDBD012D01A7B94420FD82B
:1018300062001219033A19688C4662445178997310
:10184000002900D1D9730023937053701370C7E738
:101850002C4B2D4A69212D4801F058F8002C3AD024
:101860002B681B7B9C4236D82C4BE3181B01AA68C3
:1018700094466344009A1A60019A5A60089A9A60E2
:10188000099ADA602E68002C2BD030D0337B9C4232
:101890002DD863001B19033B326894466344002231
:1018A0009A705A701A70717B22003000FFF766FF41
:1018B0007073844200D095E7287D009A019B00F068
:1018C000D9FC061E01D0002F17D00C9B002B00D195
:1018D00088E71E7086E7124B124A3B210E4801F042
:1018E00015F8114B114AA621084801F00FF8054BD5
:1018F000054A6921054801F009F82868210000F02F
:1019000017FFE2E7E8840010CC8700100485001080
:1019100074850010D887001084840010FFFFFF0F2B
:10192000B48400106087001080840010BC87001011
:10193000F0B5DE4657464E464546E0B58BB00990B9
:10194000002308938200B24BD658370032E0B14BE7
:10195000B14A3D21B14800F0D9FFB14BB14A3B211A
:10196000B14800F0D3FFB14BB14A8C21AE4800F032
:10197000CDFFB04BAE4A9021AB4800F0C7FFA84B5B
:10198000AD4A4021A84800F0C1FF2A686B68099859
:1019900000F070FC00239A4698467B68BFF35F8F87
:1019A00000221A6086F310884346002B51D100288C
:1019B00000D126E100F0F6FB02000B1EC7DB002081
:1019C0000021069007917868EFF3108672B60168DF
:1019D0000029FCD0BFF35F8F396888464C7B002C10
:1019E00032D0BAD0097B8C42B7D8944965182D0102
:1019F000B9688C46654428686968801A994100294D
:101A0000C3DC01D10028C0D10021404600F086FE91
:101A1000A042A8D12A686B6806920793AB689846E3
:101A2000EB689A464346002BA3D0002CA7D03B6816
:101A30001B7B9C42A3D8631EFA68D35C08931B02ED
:101A4000184338610020A8E700239A4698460020F2
:101A5000A3E7089B1B022343994651461800C04741
:101A600005000E007A68EFF3108B72B613685942C6
:101A70004B41D9B2002BF9D1BFF35F8F002E26DB8B
:101A8000002E52DD3B69002B53D04B4572D100F044
:101A900089FB02000B1E73DB010018005219734111
:101AA000984202D804D1914202D901225242D3175E
:101AB000002B6BDB0021049101310391029451460C
:101AC0000191414600913800FFF778FE49E03B69FB
:101AD000002BD5D04B451CD1069A079B100019004E
:101AE000521BB341994202D804D1904202D901223B
:101AF0005242D317002B12DB0021049101310391D4
:101B0000029451460191414600913800FFF756FE7C
:101B100027E04B4B464A9F21434800F0F7FE3D4BE0
:101B20003D4A3D213D4800F0F1FE002E01D1002D3F
:101B3000A8D13A68002C45D0537B9C422CD101217E
:101B400000293FD1D37B002B42D1D473002C52D03B
:101B50003B681B7B9C424ED8FA68013C135D013305
:101B6000135500233B617A68BFF35F8F13608BF3DB
:101B700010881FE7324B2E4AA2212B4800F0C6FEE8
:101B8000244B254A3D21254800F0C0FE214B224A26
:101B90003D21224800F0BAFE002C0DD0137B9C4260
:101BA0000AD863001B19033B1068844663449B7882
:101BB000002BC5D00121C3E7224B234A69212348CA
:101BC00000F0A4FE224B234AF721204800F09EFE9D
:101BD000002B0AD0117B8B4207D85900CB18033B4E
:101BE00011688C4663445C70AFE7164B164A692156
:101BF000164800F08BFE0A4B0F4A40210A4800F0BD
:101C000085FE0BB0F0BCBB46B246A946A046F0BD6F
:101C1000F01400209C8500102C870010B88500105F
:101C2000B48400106087001084840010F4850010D4
:101C3000448700100C86001084870010FFFFFF0F00
:101C400018860010E8840010CC870010048500106E
:101C5000548600109887001010B50A4B5B68002B63
:101C600004D00A21084800F099FB10BD054C230060
:101C7000064A1021206800F071FC03212000FFF7C4
:101C8000B5FCEEE7C40400200C1700205D16001020
:101C900010B5064B5B68002B01D0044810BD044B07
:101CA000044A5C21044800F031FEC046C404002010
:101CB000788600106C87001084840010F0B5DE4632
:101CC00057464E464546E0B58BB0804616001F008D
:101CD000149B9A46159B994616AB1B789B461F236F
:101CE00002AA9446634400221A7032E0002809D008
:101CF00042461268127B904204D8421E4146C9688F
:101D00008A5C48E0434B444A4021444800F0FEFDD1
:101D10000798002B75D05B46002B72D04946D04700
:101D200004000D0003000B4300D171E0002946DBE5
:101D300000F038FA06000F1E55DB36196F41B94224
:101D400002D804D1B04202D901267642F717002FFB
:101D50004FDB43465A68EFF3108472B6136859425A
:101D60004B41D9B20791002BF8D1BFF35F8F1F33DE
:101D700002AA9446634404930023039302934B46C0
:101D800001935346009332003B004046FFF716FD97
:101D9000031EABD1020041464968BFF35F8F0025A7
:101DA0000D6084F31088002B29D01F2302A98C46D4
:101DB00063441B78002BABD112021043A9E7320019
:101DC0003B00361BAF41BB4202D804D1B24202D91C
:101DD00001267642F717002FBBDA114B114A3D213D
:101DE000114800F093FD0E4B0E4A3D210E4800F0C5
:101DF0008DFD0B4B0B4A3D210B4800F087FD012068
:101E000040420BB0F0BCBB46B246A946A046F0BD6E
:101E10000798F6E7B48400108487001084840010CB
:101E20009C8500102C870010B8850010F8B50400C0
:101E30004268EFF3108572B6136858424341D8B236
:101E4000002BF9D1BFF35F8FCBB22268567BB34230
:101E50001BD10120002847D0206988422BD0090AD5
:101E6000C9B2002B2DD02068007B834229D8581E90
:101E7000E668305C88422AD000206368BFF35F8F39
:101E800000221A6085F31088F8BD002B0DD0167B58
:101E9000B3420AD85E00F618033E1768BC46664493
:101EA000B678002ED6D00120D4E7124B124A692111
:101EB000124800F02BFD124B124AFE21124800F08E
:101EC00025FD124B124A40210F4800F01FFD19005A
:101ED000100000F02DFC0028CFD106210D4B094A3F
:101EE000FF31094800F012FD23698B42C5D1002360
:101EF0002361C2E7E8840010CC870010048500103D
:101F00009C8600101487001084840010B484001094
:101F100084870010C0860010F0B587B006000F005F
:101F2000FEF7A1F900281FD106246442E517A41981
:101F30007D41BD4202D803D1B44201D9002400251D
:101F4000002D14DB0494059500F02CF902000B1E03
:101F500013DBA41A9D41002D17DC14D0300039008A
:101F600000F02CF907B0F0BD234800F0EDFC234B46
:101F7000234A3D21234800F0C9FC204B204A3D2143
:101F8000204800F0C3FC002CE8D0FFF781FE0023BE
:101F9000029301931C4B0093049A059BFFF78EFE5E
:101FA000002818DADAE7002300E00023002BD5D15F
:101FB000164B1A68EFF3108172B61368002BFCD031
:101FC000BFF35F8F114B1B68BFF35F8F00221A6056
:101FD00081F3108820BF0499059A0D4B5B6A9A42E1
:101FE000E3D80B48806A884203D29A42DBD00123AF
:101FF000DCE70123DAE7C046C48600109C850010A8
:102000002C870010B88500102D1600100C1700202A
:1020100000400540F8B504000D0000F0C3F80200D0
:102020000B1E10DB20002900801859418B4202D87A
:1020300004D1824202D901204042C117002908DBA5
:10204000FFF76AFFF8BD064B064A3D21064800F03F
:102050005DFC034B034A3D21034800F057FCC0469A
:102060009C8500102C870010B885001010B5FA224E
:1020700092000023002103F07DF8FFF7CBFF10BD95
:1020800070B584B006000C00FFF702FE0023029337
:102090000193194B009332002300FFF70FFE051E3A
:1020A00011DD20BFFFF7F4FD2900FFF7BFFE134B42
:1020B0005B6A9C421BD8114A926AB2421AD29C4275
:1020C00013D0012014E00D4B5B6A9C4209D80B4AE7
:1020D000926AB24207D29C4201D0012008E000205F
:1020E00006E0002004E0012002E0002000E00020E3
:1020F00004B070BD0120FBE72D1600100040054024
:1021000070B5EFF305833F2018401038EFF3108CC3
:1021100072B6194B1B68002BFBD0BFF35F8F0123F6
:1021200019008140154A5163154A12781400C440C1
:10213000234214D0114B5C6A8300124D5B599C42C0
:1021400006D38300104C1B598A430D490A7007E0DF
:102150000A4A031D9B0099589950002300E0002370
:10216000BFF35F8F044A002111608CF31088002BAD
:1021700000D0984770BDC046280100D000400540FF
:1021800047170020181700203C0F002010B5010051
:10219000024A0348FFF72EF910BDC046F087001031
:1021A00044170020044B5B6A034A906A1900536A83
:1021B0009942F9D17047C04600400540084B5B6A20
:1021C00001E0074B5B6A8B42FBD301E0044B5B6A87
:1021D0008B4203D1024B9B6A8342F7D37047C046C0
:1021E0000040054070B504000D00EFF3108672B694
:1021F0001B4B1B68002BFBD0BFF35F8F002D1CD047
:10220000200000F03BFD174B83420BD0190020004B
:1022100000F03CFD0121200000F020FD0123A3403F
:10222000114A1360A400114BE550BFF35F8F0C4BB4
:1022300000221A6086F3108870BDA2000B4B0021AB
:10224000D1500122A2400A490B7893430B700549F3
:10225000200000F045FD0021200000F0FFFCE4E735
:10226000280100D001210010386005403C0F0020FB
:1022700047170020F0B5DE4600B584B00400150015
:1022800001921E000293FFF78DFF03958E4202D844
:102290004ED185424CD9EFF3108B72B6274B1B6899
:1022A000002BFBD0BFF35F8F254A17780125A5408F
:1022B000EBB23B431370234B5D63221D92000199E7
:1022C000D150A2002049029850501B6A2B4212D1D3
:1022D0001C4B1B6C2B4208D00020BFF35F8F174BA9
:1022E00000221A608BF3108823E0184B184AC12192
:1022F000184800F00BFBFFF755FF8E4214D802D1AF
:10230000039B834210D80E4B1B78BB420ED00D4B63
:102310001D625D631F2004400123A3400E4A136029
:10232000074B1F701E38D8E70020D6E70120D4E7FE
:10233000012004B080BCBB46F0BDC046280100D0DF
:10234000471700200040054018170020148800108F
:10235000708800103888001080E200E0EFF3108CE5
:1023600072B60B4B1B68002BFBD0BFF35F8F0123B2
:102370008340084A136208490A789A430A70BFF3F7
:102380005F8F034B00221A608CF310887047C046A1
:10239000280100D00040054047170020024B9C4612
:1023A00061448900016070474000003470B504004A
:1023B0000D00FFF77BF801002000FFF7EFFFFF2380
:1023C00023716571BFF35F8F70BD10B50021FFF7FA
:1023D000EDFF10BD10B5FF21FFF7E8FF10BD0000B5
:1023E000034B9C46614489000160BFF35F8F7047D7
:1023F0004000003410B504000120FFF765F801002B
:102400002000FFF7EDFF10BD10B500291ED0037BA3
:1024100099421BD84B005B18033B0468A4466344F5
:10242000002919D0002A1DD0914221D0002A25D0A0
:10243000047BA24222D80468500080180338201878
:102440008170197800291FD11A7010BD104B114AE4
:102450006921114800F05AFA104B114A70310E48A8
:1024600000F054FA0F4B0E4A71210B4800F04EFA5F
:102470000D4B0B4A7221084800F048FA044B054AFC
:102480006921054800F042FA41701A70DDE7C04644
:10249000E8840010788A001004850010448500103C
:1024A000648A0010508500105C85001070B506002D
:1024B0000D001400002914D0002A14D0806873681D
:1024C0009847002806D0220029003000FFF79CFF23
:1024D000280007E02A0021003000FFF795FF2000C8
:1024E00000E0100070BD0800FCE7000010B50023FC
:1024F000437301338373037BC3730123027B9A42CB
:1025000014D9002B0CD0027B934209D85A00D21860
:10251000033A01688C4662440133DBB25370EDE745
:102520000B4B0C4A69210C4800F0F0F9002A09D045
:10253000924207D8016853009A18033A8A18002378
:10254000537010BD024B034A6921034800F0DEF9C5
:10255000E8840010788A00100485001010B501731B
:1025600042608360FFF7C2FF10BD000070B5040039
:10257000081E00D170BD002934D0237B994231D888
:102580004B005B18033B2268944663445A78002A48
:10259000F0D02DD0237B9A422AD853009B18033BBE
:1025A00021688C4663445D7800215970002825D04D
:1025B000237B984222D843001B18033B21688C469A
:1025C00063440021597001002000FFF76FFF0600EF
:1025D00029002000FFF7CAFF020031002000FFF7AA
:1025E00065FFC7E7084B094A6921094800F08EF9E1
:1025F000054B064A6921064800F088F9024B034A58
:102600006921034800F082F9E8840010788A0010FC
:102610000485001070B505000C001600002928D0B4
:102620002DD0037B99422AD84B005B18033B0268EC
:10263000944663445A78002A27D19A78002A2AD1EE
:102640001978FFF793FF0300002E03D0EA7B002ADE
:1026500027D1EC73002B37D1002C49D02B7B9C4227
:1026600046D82B6861000C19033C1C1900236370C9
:1026700070BD224B224A3821224800F047F9224BF4
:10268000224A6921224800F041F9224B1C4A3A2192
:102690001C4800F03BF9204B194A3B21194800F037
:1026A00035F9002A0AD0297B8A4207D851008A18B6
:1026B000033A29688C4662445470CAE7124B134AA5
:1026C0006921134800F022F9002B0BD02A7B93429A
:1026D00008D843001B18033B2A6894466344002231
:1026E0009A70B9E7084B094A6921094800F00EF9C8
:1026F000054B064A6921064800F008F98C8900104C
:10270000508A001094890010E8840010788A001024
:1027100004850010C4890010EC89001070B5040015
:102720000A00457B2900FFF775FF6073280070BD24
:1027300070B50400002967D0437B8B420ED000297E
:1027400011D0037B99420ED84B005B18033B026803
:10275000D0188378002B0CD1002056E00121FFF720
:10276000DDFF012051E0294B294A6921294800F069
:10277000CDF8002B20D0227B93421DD85A00D318CD
:10278000033B2268D2182568EB5C8B421AD0002BE1
:102790001BD0227B934218D85A00D318033B2268DF
:1027A000D21853788B4216D0002BF0D11A4B1B4A0B
:1027B00067211B4800F0AAF8144B154A69211548F7
:1027C00000F0A4F84378137007E0104B104A692119
:1027D000104800F09BF843785370002383704370D7
:1027E00001222000FFF716FF0200617B814205D025
:1027F0002000FFF75BFE6073012006E0094B074AEB
:102800006D21074800F082F8002070BDE8840010B8
:10281000788A001004850010108A0010388A001091
:1028200094890010188A001070B5264B264A1A6049
:10283000264B274A1A60274B9A68254B9343FAD1B7
:10284000254C01E008CC9847244B9C42FAD300F079
:1028500015F91E4B224A1A601E4B9B68DB43DB01B5
:10286000FAD1204B40229A675A671A67DA661E4CE3
:1028700003E02000FFF7A9FD08341C4B9C4206D260
:102880006379002BF5D02000FFF7A4FDF4E7184C86
:10289000A168184DC022280002F04EFDA560FDF78A
:1028A000E2FC002800D000BEFEF7F0FD00F07AFB4D
:1028B000FFF7D2F9104C01E008CC98470F4B9C422F
:1028C000FAD370BD00E00040BFCDFBFE00F0004039
:1028D000FE7F3C0000C00040BC050020CC0500206D
:1028E000FFFFFF0100F00140B4050020BC050020FF
:1028F00000ED00E000000020CC050020D405002001
:1029000000BEFDE710B5FFF7FBFF000010B582B079
:102910000C001900002A0CD0084B002A0BD00192A1
:10292000009323000200064802F03CFE0120FFF75E
:10293000E7FF044BF1E7034AF1E7C046848A001041
:10294000948A0010908A00100FB400B583B0084834
:1029500002F0F8FD049B002B07D005A90191180097
:1029600002F0FEFD034802F0EDFD0120FFF7C8FF75
:10297000C48A0010D48A0010F8B5DE4657464E4689
:102980004546E0B505000F0092460A9A93424ED3A1
:102990001A0E91461E020A9A00233000494601F0A1
:1029A0007BFD80466C006419A4002F4B9C46644458
:1029B0006368834200D260602B1FDBB29B46012B11
:1029C0003BD9C0239B012343802212011A60AB0034
:1029D000264A9958002905D0506901F01BFD0130A5
:1029E0000138FDD153465A0123685A40E0231A406A
:1029F00080235B0123431A605A46012A28D9802389
:102A00009B012343802212011A60434663604246C1
:102A100000233000494601F03FFDAD00134B5851F3
:102A20000120F0BCBB46B246A946A046F8BD104BFB
:102A3000104A2D211048FFF769FF012FC1D1C02393
:102A40009B01234303221A60A368DB07FCD5C9E777
:102A50002168794003220A401A60A2680123BB4022
:102A60001342FAD0CBE7C04600800040501000204F
:102A7000D88A0010288B0010EC8A001030B583B083
:102A80000C2000F027FBFEF7F7FC00280DD00023F8
:102A900004E099002D4A2E4888500133092BF8D9BB
:102AA0002A4B2C4A5A6203B030BD2B4B00229A6746
:102AB00000F088FB294B01221A60274B5B6C012B2D
:102AC000FBD1274B03221A60234B9B6B012BFBD1BD
:102AD000022400940533234A0121234800F06EFAB2
:102AE00000940523214A0121214800F067FA214B77
:102AF0000093002202210420FFF73EFF1E4D0095A7
:102B00002B00002201210520FFF736FF104C009416
:102B10002300002200210720FFF72EFF009423004E
:102B2000002200210820FFF727FF0A4B0093230013
:102B3000002200210920FFF71FFF00952B00002233
:102B400000210620FFF718FFADE7C0465010002017
:102B5000006CDC021BB70000008000403CB000406D
:102B600030B00040002F68590080024000389C1CA3
:102B700000C00240001BB700405973078000014BA2
:102B8000C058704750100020074B9B6810308000E1
:102B90001950BFF35F8FBFF35F8F044B00211960A3
:102BA00082F310887047C04600ED00E0240100D099
:102BB00010B5091A04394808090B05D14005400D24
:102BC000044B184380B210BD034B044A8C210448C7
:102BD000FFF79CFE00E0FFFF388B0010388D0010DF
:102BE000488B001010B5091A04394C08090B08D19C
:102BF0004905490D064A11430180064B2343438092
:102C000010BD054B054A94210548FFF77FFEC046DD
:102C100000F0FFFF00F8FFFF388B00100C8D001054
:102C2000488B001001238340034A10681840431E5C
:102C30009841C0B27047C04600E100E0002904D0CE
:102C4000034B1860034B18607047034B1860FBE799
:102C500080E200E000E100E080E100E010B5012347
:102C600083401800FFF7EAFF10BD000001238340F6
:102C7000014A13607047C04600E200E0024B9B68C7
:102C800010308000C058704700ED00E070B50400BF
:102C90000D00EFF3108672B60C4B1B68002BFBD0B7
:102CA000BFF35F8F2000FFF7E9FF094B984201D087
:102CB000A84205D1320029002000FFF765FF70BD52
:102CC000044B054A70210548FFF720FE240100D07F
:102CD000CD0100107C8B0010548D0010488B00102B
:102CE000F0B5CE46474680B583B006000D00EFF341
:102CF000108872B6574B1B68002BFBD0BFF35F8F59
:102D0000554B9A6834001034A300D758534B9F4258
:102D100007D0AF4200D19BE00197514BFB1A2F2BFC
:102D200009D9424639003000FFF72EFF03B0C0BC7E
:102D3000B946B046F0BD3000FFF774FF8146002170
:102D40003000FFF78BFFBFF35F8FFDF78CFA002891
:102D500001D0844219D10123019C9C4323004049A6
:102D60005B1A5B4148495943090D49B20022A368E7
:102D7000AB4212D00622A256002A0DDB53009B184C
:102D80009B002200364CE418F1E72021354B364AEF
:102D9000FF313648FFF7BAFD2200AB4251D106257C
:102DA0006557002D39DB6B005B199A002C4B9B1883
:102DB0009A68A260DA79E27106229A56A2719B792A
:102DC0005BB2002B10DABD200002A0806B005B1903
:102DD0009B00234AD318264A1178997115704946E9
:102DE0003000FFF73BFF9CE7201D6B005B199B0049
:102DF0001B4A9B181A1D9B88D90A1C2907D15B0501
:102E00005B15023359005118FFF7D2FEDDE7194B6D
:102E1000194A9A211548FFF779FD00280CD1002A9C
:102E200008D0FF239371154B9380114B1A78A27130
:102E30001970D4E7094FF8E7201D1149FFF7D2FEBA
:102E4000CDE7AA210F4B084A49000848FFF75EFD6D
:102E5000024F66E7240100D000ED00E0CD01001034
:102E6000EC040020908C0010248D0010488B001082
:102E700045170020788C0010448D001000BDFFFF26
:102E800026050020B48C0010AAAA000010B5032368
:102E900004009C43064A9446644422681840C000DB
:102EA000FC3383409A43130081400B43236010BDE1
:102EB00000E400E070B50400012606432D4BF31A30
:102EC0002F2B28D8FDF7CFF900282BD0EFF3108C4B
:102ED00072B6294B1B68002BFBD0BFF35F8F23001A
:102EE000244D5B1B5B412E4D5D432D0D6DB2234B7D
:102EF0009B6880001B58B3421BD00022032A32D8A3
:102F000053009B189B001B49CB189B795BB2AB42CB
:102F10001FD00132F2E77221194B1A4AFF311A48C9
:102F2000FFF7F4FCBA21194B164A49001648FFF77F
:102F3000EDFC124B9B68164A1A50164B1A78A27178
:102F40001D70BFF35F8F0C4B00221A608CF310884A
:102F500070BD08005300991889004118FF268E7132
:102F60000D4A8A80E9E786210C4B064AFF31064864
:102F7000FFF7CCFCEC040020240100D000ED00E0C1
:102F8000BC8C0010F08C0010488B0010E48C0010FA
:102F9000CD0100104517002000BDFFFF108A001072
:102FA000AAAA000010B5002404E080212000FFF749
:102FB0006DFF01341F2CF8D910BD0000F0B5CE46CE
:102FC00000B504000E0091461F000C2001F022FA0B
:102FD000050043011B1A9901C91AC9000918890182
:102FE000484601F017FA0200103A98235B009A4213
:102FF00033D87B1E062B36D8069B013B062B32D8D6
:10300000069B9F4235D34B461A09AA4237D33F0449
:10301000069B1D032F432368002B36DB234B9C426A
:1030200041D080225201224B1A60224B1A60224B5F
:103030009B6811009943FAD12660A060231DC0222D
:1030400092011A43212313602368002BFCDAE76006
:103050000823136080BCB946F0BD184B184A1621EE
:103060001848FFF753FC184B154A19211548FFF76C
:103070004DFC164B124A1F211248FFF747FC144B18
:103080000F4A22210F48FFF741FC22683F231340DB
:10309000B342C3D1A3681B051B0D8342BED1E368B5
:1030A000002FBBD1D6E780229201BCE700C00240CE
:1030B00000E0004000F0004000C00040708D0010B3
:1030C000408E00108C8D0010C08D00100C8E0010F2
:1030D000248E001080239B000343014AD362704773
:1030E00000800540024B1A68024B5A607047C04688
:1030F000E81400200080054010B50200144B802029
:10310000C0051860134B1448186000291BD0134BDE
:10311000E021C9041960002A00D1323253019B1A00
:103120009800801800010E4B186080235B049842C1
:1031300002D30B4B0B4A1A60FFF7D4FF074B8022D8
:10314000D2051A6010BD024BE021C9041960E2E704
:1031500000B0054008200140FCFF010000A0054030
:10316000E8140020FFFFFF0010B5034B0022DA61D6
:10317000FFF7C2FF10BDC0460080054010B5030038
:1031800010000C4A8024E4051460002B0DD00122AD
:103190001343094A094CD461094C5C4014625162E2
:1031A00093620021FFF7A8FF10BD034B0022DA61F4
:1031B000F7E7C04600B0054000800540D3C007B027
:1031C0002D3FF84F064BAA2212011A602F22DA6017
:1031D000044B054A1A60024B5B68002BFBDA704710
:1031E000004002400060024000B0FA009A4200D263
:1031F00088547047704710B5002802D00B684968A2
:10320000984710BD0100002007E083001B185B00F9
:10321000501C08601078C01830380A681378303BAA
:10322000DBB2092BF1D97047F0B5DE4657464E4662
:103230004546E0B583B093461F000C9B9A460D9C13
:103240000E9B99460F9B9B0703D0B8460F000600C4
:1032500022E00192A34688464E46B9460700B44292
:1032600007D2551C4B4641462020B84701342A005E
:10327000F5E73D004F465C46019B9B46B1464646FE
:10328000B84637002E0007E0013C551C5346185D38
:1032900043463900B0472A00002CF5D135003E00E6
:1032A00047460F9B9B0707D4100003B0F0BCBB46FA
:1032B000B246A946A046F0BDB0464E46B9462F00DC
:1032C0005D46531BB342EFD2541C4B46414620206F
:1032D000B8472200F5E7F0B5CE46474680B585B041
:1032E000944698460C9D0D9C0EAB1B789946109AFF
:1032F000119B129EB7071CD4002B0CD0F7070AD5E0
:103300004F46002F02D10C37374204D0013B02E078
:1033100030272F550134944201D21F2CF8D9F707DA
:1033200007D59C4205D21F2C03D830272F550134D6
:10333000F5E7F70615D5770505D4002C03D09442A0
:1033400024D09C4222D00F9A102A2BD00F9A102AF8
:1033500030D00F9A022A35D01F2C02D830222A559D
:1033600001341F2C05D84A46002A31D02D222A5577
:103370000134039602930194009543466246FFF799
:1033800053FF05B0C0BCB946B046F0BD621E012C6B
:1033900006D00F9F102F01D01400D4E7023CD2E7D3
:1033A0001400D0E7B206D1D41F2CCFD878222A55EA
:1033B0000134D1E7B206CCD51F2CCAD858222A55E1
:1033C0000134C9E71F2CC7D860322A550134C3E73E
:1033D000720703D52B222A550134CAE73207C8D514
:1033E00020222A550134C4E7F0B5DE4657464E4642
:1033F0004546E0B593B081468A46089209931CABD6
:1034000010CB1B789B461E9D219B9846002C03D118
:10341000102342469A4390468023DB0046461E40D6
:1034200042461A4212D0002C22D000260EE0303341
:10343000D9B2771C0AAB99552900200000F0EAFFA9
:10344000AC4216D31F2F14D83E00040029002000E0
:1034500000F0E0FFCBB2092BE9D94246920605D530
:103460004121C918C9B20A39C9B2E2E76121F8E7B6
:10347000270043460693209B05931F9B04930395C7
:103480005B46029301970AAB0093099B089A514649
:103490004846FFF720FF13B0F0BCBB46B246A94632
:1034A000A046F0BDF0B5DE4657464E464546E0B56F
:1034B00095B0089009910A920B931E9E1F9C20AB19
:1034C0001B789B46229B9946239D269B9A46330058
:1034D000234303D1103352469A4392468023DB00A4
:1034E00057461F4052461A4219D0330023432DD06D
:1034F000002714E03033DAB27B1C98460CABDA5567
:103500004A462B003000210000F0C6FFA5421FD81C
:1035100019D043461F2B1BD8474606000C004A46CD
:103520002B003000210000F0B7FFD3B2092BE1D906
:103530005246920605D54122D218D2B20A3AD2B2E8
:10354000DAE76122F8E7B145E3D901E000239846C4
:1035500053460693259B0593249B04934B46039364
:103560005B460293434601930CAB00930B9B0A9A74
:1035700009990898FFF7AFFE15B0F0BCBB46B246FC
:10358000A946A046F0BD0000F0B5DE4657464E46BF
:103590004546E0B591B083468A460C9298461A9CFF
:1035A00008941B9D099522002B002000290001F0A2
:1035B00000FA002800D0E5E001225242D74B20005B
:1035C000290001F0F1F9002800D0DBE0012252428D
:1035D000D34B2000290001F0D1F9002800D0D1E020
:1035E00000220023089D2800099E310001F0C6F941
:1035F000002800D0DDE00898099906900791802303
:10360000DB001E9A1A400D921E9A1A4201D106231F
:103610001C930698079904000D000A000600024357
:1036200000D1D1E0080D4005400DBE4CA4466044D9
:103630000A03120BBC4B13431F0001F0CDF9BB4A28
:10364000BB4B01F058F9BB4ABB4B01F02DF904000C
:103650000D000022B94B3000390001F01CF9B84AC6
:10366000B84B01F048F902000B002000290001F0DE
:103670001BF901F0C9F9814601F0AEF904000D0013
:10368000B14AB24B01F037F90022B14B01F00CF90D
:1036900001F0BAF90600AF4AAF4B2000290001F053
:1036A0002AF904000D00300001F096F9AB4AAC4B4A
:1036B00001F021F902000B002000290001F0EBF8D5
:1036C00004000D0002000B0001F015F90A900B91A7
:1036D000A44BF31800261F0522002B002000290010
:1036E00001F0E2F80E900F9122002B0000208021C3
:1036F000C90501F0D0F804000D0000229A4B0A9889
:103700000B9901F0DAF80022984B01F0CDF8020095
:103710000B000A980B9901F0D0F80022944B01F0AD
:10372000C3F802000B000A980B9901F0C6F80200DA
:103730000B002000290001F0B7F802000B000E98E2
:103740000F9901F0BAF80022774B01F0ADF8320082
:103750003B0001F0D0F806000F0004000D00069AAF
:10376000079B01F021F9002830D001235B429C46E1
:10377000E14400227D4B3000390001F09EF8040046
:103780000D0023E01E9B04931D9B03931C9B02933F
:10379000089A099B0092019343460C9A5146584659
:1037A00000F0FCF811B0F0BCBB46B246A946A046FA
:1037B000F0BD0023002406930794069580231B0682
:1037C0009C46664407961AE7002399464B466333A6
:1037D000C62B1ED804261E9B1B0526D52B00234373
:1037E0000FD0644A644B0698079901F0D5F8002879
:1037F00079D00022614B0698079901F0BFF80028A4
:1038000071D01C9B4B4506DD4A46981A431E1C93FB
:1038100003E00526DFE700231C938023DB001E9ACC
:103820001A431E920026002399461D9B9E4264D295
:103830009F1B02231E9A1A400A921E9A134202D01C
:10384000002E00D000274B46002B07D022002B0073
:103850000698079901F031F806900791002200239D
:103860000898099901F08AF8002848D1444B1E9A1B
:103870001340049303971C9B0293069B079C0093A1
:10388000019443460C9A5146584600F087F8002EA2
:1038900000D187E71E9B9B063DD54525441C43462A
:1038A000020051462800D8474B46DA179B18534070
:1038B00005220592013E0496002203920A320292EA
:1038C0004A46D00F01900093434622005146584685
:1038D000FFF78AFD0A9B002B00D163E702005F46D9
:1038E0000C9E1D9D54E01C9B002B9ED00D9B002B1D
:1038F0009BD01C9B013B1C9397E7002799E7069CF4
:10390000079D2200290080200006844661440B00A8
:1039100006920793AAE76525C0E7C046FFFFEF7F41
:10392000FFFFEFFF01FCFFFF0000F03FFB799F501E
:103930001344D33FB3C8608B288AC63F0000F83FCA
:1039400061436F63A787D23F71A379094F930A4000
:103950000000E03F1655B5BBB16B0240EF39FAFEEF
:10396000422EE63FFF03000000002C4000002440F0
:10397000000018402D431CEBE2361A3F80842E4194
:10398000FFF7FFFF541C434651462020B847220052
:10399000931BAB42F6D3100004E7C046F0B5DE46F9
:1039A00057464E464546E0B595B00690079193467A
:1039B0009946209F1E9A1F9B1000190000F0F9FFE6
:1039C000002831D101225242BF4B1E981F9900F0AE
:1039D000D5FF002837D101225242BC4B1E981F99B7
:1039E00000F0E2FF00283DD10022B94B1E981F993C
:1039F00000F0DAFF002850D10022B64B1E981F9924
:103A000000F0BCFF002848D1002200231E981F9917
:103A100000F0B4FF002850D100239846229B5B059C
:103A200000D4B6E0002458E0229B0393219B02932C
:103A300003230193A84B00934B465A4607990698D7
:103A4000FFF7F2FB0EE1229B0393219B02930423D9
:103A50000193A24B00934B465A4607990698FFF7ED
:103A6000E3FBFFE00423229A1A4022990B4210D074
:103A70009B4B002A0FD00422229903912199029195
:103A8000019200934B465A4607990698FFF7CCFBE4
:103A9000E8E0944BEDE70322EEE7229B0493219BA1
:103AA000039302971E9B1F9C009301944B465A461A
:103AB00007990698FFF768FDD4E01E9A1F9B002027
:103AC000002100F0E8FE1E901F9101239846A5E713
:103AD0000CAB30221A55013F01341F2C01D8092F9D
:103AE000F6D81E981F9900F08FFF050000F074FFB4
:103AF00002000B001E981F9900F0CDFEFA007A4BD1
:103B00009B181A685B680A920B9300F0F4FE089009
:103B1000099100F09DFF060000F05AFF02000B0023
:103B20000898099900F0B7FE0890099100226F4BA0
:103B300000F03AFF00282ED00136300000F048FF98
:103B400002000B000A980B9900F01EFF002801D01C
:103B500001350026002F2CD1280000F03DFF020087
:103B60000B001E981F9900F096FE06000F00002221
:103B70005E4B00F003FF002846D100225B4B300073
:103B8000390000F011FF00283ED1EB073CD501358C
:103B90003AE0062746E70022544B0898099900F0BE
:103BA000EDFE0028D6D1002E01D0F307D2D5013684
:103BB000D0E7AA461F2C11D8013F0A21300000F09F
:103BC00029FC651C30310CAB19550A21300000F07E
:103BD00021FC092E0ED906002C00EBE755461F2CC0
:103BE0000CD87B1E002F09D00CAA302111551F00C4
:103BF0000134F4E72B0055461C00F0E71F2C03D8D6
:103C00000CAB2E221A5501341F2C10D80A21280083
:103C100000F0D8FB661C30310CAB19550A21280086
:103C200000F0D0FB051E01D03400EDE73400032383
:103C3000229A1340012B1CD01F2C06D84346002B80
:103C400032D00CAB2D221A550134229B0393219BB9
:103C5000029301940CAB00934B465A460799069881
:103C6000FFF7E2FA15B0F0BCBB46B246A946A04643
:103C7000F0BD219B002B13D04346002B02D10C3307
:103C800013420FD0219B013B2193190003E00CABA1
:103C900030221A5501348C42CED21F2CF7D9CBE7F3
:103CA0002199F8E72199F6E7229B5B0704D50CAB35
:103CB0002B221A550134C8E7229B1B07C5D50CAB34
:103CC00020221A550134C0E7FFFFEFFFFFFFEF7F0F
:103CD00065CDCD4165CDCDC1588E00105C8E0010F4
:103CE000508E00104C8E0010489000100000E03FF5
:103CF000F0B5DE4657464E464546E0B593B082469F
:103D00008B4690461193002900D1EBE200275546DF
:103D1000119B1878002800D1E7E2252809D07C1CE7
:103D200043463A005946A847119B01331193270097
:103D3000EEE7013311930024119A11780B00203B18
:103D4000D8B2102803D88300D048C3589F460B0030
:103D5000303BDBB2092B2CD92A292FD000230A9320
:103D6000119B1A782E2A39D000239A46119A13787B
:103D7000683BD9B2122976D88B00C549CB589F46EB
:103D800001231C4301321192D6E702231C43013266
:103D90001192D1E704231C4301321192CCE708238E
:103DA0001C4301321192C7E710231C4301321192C8
:103DB000C2E711A8FFF726FA0A90D1E71C9B1A1D4B
:103DC0001C921868002804DB0A90119B01331193A0
:103DD000C6E702231C4343420A93F6E78022D2003F
:103DE00014435A1C11925A781300303BDBB2092B52
:103DF00004D92A2A07D000239A46B7E711A8FFF76B
:103E000001FA8246B2E71C9B1A1D1C921868002812
:103E100004DB8246119B01331193A7E70020F8E7EA
:103E200080235B002343511C119152786C2A01D0EE
:103E30001C0018E0C0239B001C430131119112E0CB
:103E400080232343511C11915278682A01D01C0011
:103E500009E0C0231C430131119104E080235B0081
:103E60001C4301321192119B18780300253BDAB2F2
:103E7000532A00D92CE29300864AD3589F468023C8
:103E80009B001C4301321192EDE780235B001C4331
:103E900001321192E7E7782809D0582838D06F28E6
:103EA00038D0622838D010239C430A2600E0102620
:103EB000582833D0692803D0642801D00C229443B9
:103EC000630501D50122944369282AD0642828D0AB
:103ED000A30500D59FE0E30500D5B8E0630600D454
:103EE000CAE01C9A111D1C911168FF220A4005941A
:103EF0000A9B049353460393029600230193009276
:103F000043463A0059462800FFF76EFA070027E0BB
:103F10001026CDE70826CBE70226C9E72022144366
:103F2000C8E7A30520D4E30550D4630666D51C9AE0
:103F3000111D1C911168FF220A40D317D118594056
:103F400005940A9B0493534603930296D20F019261
:103F5000009143463A0059462800FFF745FA07000A
:103F6000119B01331193D3E61C9BDA1D07218A4371
:103F7000110008311C91116853689C46DB170C93A3
:103F80000D930C9A0D9B100048400E9062465340D2
:103F90000F930E980F990C9A0D9B801A99410E90D1
:103FA0000F9108940A9B07935346069304960023A7
:103FB00005936346DA0F02920090019143463A005E
:103FC00059462800FFF76EFA0700C9E71C9A111D31
:103FD0001C911268D317D118594005940A9B049379
:103FE000534603930296D20F0192009143463A0042
:103FF00059462800FFF7F8F90700B1E7230605D571
:104000001C9A111D1C910023D25E96E71C9A111D6B
:104010001C91126891E71C9BDA1D07218A4311004D
:1040200008311C9108940A9B079353460693049603
:104030000023059302931368546800930194434648
:104040003A0059462800FFF72DFA070088E71C9A26
:10405000111D1C9105940A9B0493534603930296E9
:10406000002301931368009343463A005946280001
:10407000FFF7BAF9070073E723060DD51C9A111D47
:104080001C9112681204120C31E7C046648E0010B5
:10409000A88E0010F48E00101C9A111D1C9112683D
:1040A00025E746281AD01C9B0733072293431A00A2
:1040B00008321C9204940A9A0392524602925C6857
:1040C0001B680093019443463A0059462800FFF7C5
:1040D00065FC0700119B0133119319E620231C4353
:1040E000E1E7672801D0472802D180231B011C4348
:1040F000452801D0472801D120231C431C9B0733AE
:10410000072293431A0008321C9204940A9A0392DD
:10411000524602925C681B680093019443463A0041
:1041200059462800FFF730FA0700119B013311931D
:10413000EEE502231A002240924623421FD00124BA
:104140001C9B1A1D1C927A1C9146187843463A0013
:104150005946A8475346002B16D1119B01331193A2
:104160004F46D5E5561C434659462020B847230004
:1041700032005C1C9D42F5D83D001700E0E70123AA
:104180003A002F000A9DF4E74A46A9460A9D06E038
:10419000571C434659462020C84734003A00661C45
:1041A000A542F5D84D469146D7E71C9B1A1D1C9297
:1041B0001B6899465346002B00D1013B4E4601E057
:1041C000013613003278002A02D05A1E002BF7D194
:1041D0004B46F21A10928023DB0026001E401C4240
:1041E00003D0524501D95346109302231A002240AE
:1041F0000B92234205D03A0037004C46A94655465B
:1042000020E03A00109B5F46B3462E0006E0551CA6
:10421000434639002020B04723002A005C1C0A993D
:104220009942F4D835005E46BB46109437004C46A0
:10423000A946554606E01D000134561C4346594622
:10424000C84732002078002804D0002FF4D06B1E1D
:10425000002DF0D117004D460B9B002B03D1119B75
:104260000133119354E50A9F109B06E0561C434608
:1042700059462020A847230032005C1C9F42F5D8F5
:104280001700ECE721231C431C9B1A1D1C921B6882
:104290000093059408230493534603931023029339
:1042A0000023019343463A0059462800FFF79CF843
:1042B0000700119B013311932AE57C1C43463A0009
:1042C00059462520A847119B0133119327001FE56C
:1042D0007C1C43463A005946A847119B0133119371
:1042E000270015E50A4B9A4610E5AA46474502D332
:1042F00043465A1E00E03A00434659460020D04744
:10430000380013B0F0BCBB46B246A946A046F0BD8B
:10431000F53100100EB410B585B0010007AC08CC23
:1043200003940122009452420348FFF7E1FC05B0D8
:1043300010BC08BC03B01847ED31001000B585B0C3
:10434000029003910121009313004A4202A90248FE
:10435000FFF7CEFC05B000BDF73100100148042185
:10436000014B1847400500208D43001010B5010097
:1043700018231B8814221088984710BD10B501001F
:1043800018231B8816221088984710BDF0B5C64622
:1043900000B507000E0000250123984600E0013516
:1043A000B5420AD2AC003C192068FFF7DFFF20605D
:1043B0000028F4D100239846F1E7404680BCB84677
:1043C000F0BD0000124A936F9B0815D29066D1662B
:1043D000002905D0FFE7FFE7FFE7516F106F704737
:1043E00004B580210906C2175140002800D0C843F7
:1043F00003F0AAFF002104BDF0B5146E556E576F8F
:10440000166FFFF7E3FF1466556657671667F0BD32
:10441000000000D0114A936F9B0813D210665166BA
:10442000002905D0FFE7FFE7FFE7516F106F7047E6
:1044300004B5002801D00020C04303F085FF00210F
:1044400004BDC046F0B5146E556E576F166FFFF77A
:10445000E5FF1466556657671667F0BD000000D08B
:1044600094464E4A926F9208624601D230E0C046AE
:10447000F0B54A4EB56F6D08FCD3346E756E776F2C
:10448000366F00F025F89446444A1466556657671F
:1044900016676246F0BDC0469446404A926F920845
:1044A000624601D258E0C046F0B53C4EB56F6D088B
:1044B000FCD3346E756E776F366F00F04DF894460E
:1044C000364A14665566576716676246F0BDC046A1
:1044D000002B24DB11D000293EDA00B5C94340424D
:1044E00000D1013100F038F8C943404200D1013118
:1044F000DB43524200D1013300BD002AEBD100283A
:1045000001D1002905D00020C90FC90701D1C0433E
:10451000410800B503F010FF0022002300BD00B5E4
:1045200000290ADBDB43524200D1013300F014F8CA
:10453000C943404200D1013100BDC943404200D1CE
:104540000131DB43524200D1013300F005F8DB4377
:10455000524200D1013300BD002923D1002B18D1D4
:10456000002A0CD0BC460D4F38667A660021002325
:10457000FFE7FFE7FFE77A6F386F6746704700286D
:1045800001D00748010000B503F0D6FE0022002349
:1045900000BD02000B00002000217047000000D089
:1045A000FFFFFFFF002B00D0BDE0130C26D1002A37
:1045B000E7D080B4104F39667A66FFE7FFE730B482
:1045C000040C7B6F396F1B0423433B66FFE7FFE757
:1045D000FFE7C04684B27B6F3D6F1B0423433B66FD
:1045E000FFE7FFE7C04600232C042D0C7A6F386FDD
:1045F00000196941B0BC7047000000D0F0B5944686
:104600000025140E01D112020835140F01D1120138
:104610000435940F01D192000235D40F01D152001C
:104620000135D40B0134254F7C66254C3C660E0CBD
:1046300093B2FFE7FFE7FFE73C6F6643360C770373
:10464000BE467343DF0B5B04C01AB941130C7343BE
:10465000DB18C91ACE086643360CB64493B27343CE
:104660001F0F1B01C01AB941130C73431F0B1B050D
:10467000C01AB941860D8F023E436643360C092DA0
:1046800024DB520A7243801A7703460A6643360CCB
:1046900016235B1BDE40DF40BF1964466643821B66
:1046A0007046043506330100D940A840C01900D334
:1046B0000131A24206D20023F0BD0000000000D06C
:1046C000FFFFFFFF121B0130F3D3F1E709277F1B28
:1046D000FE406446A2B27243801A00D20139220C15
:1046E0007243130C1204821A99410B007046043570
:1046F00013370100F940A840801900D30131002B85
:1047000002D1A2420AD2F0BD013000D30131121B06
:10471000FAD2013BF8D1A24200D2F0BD013000D361
:104720000131121BF7E7F0B51C0C00D080E00CB48F
:1047300000251C0A04D11B02160E33431202083551
:104740001C0B04D11B01160F3343120104359C0BC3
:1047500004D19B00960F334392000235DC0B02D14B
:1047600092185B4101351C00971864410134464F93
:104770007C66464C3C660E0CFFE7FFE7FFE7C04651
:104780003C6F6643360C7703BE4697B27743C01B37
:1047900000D20139C01B00D201399FB27743C91B37
:1047A000C91B170C77437E04FF0B801BB941CE0851
:1047B0006643360C0C2D33DBB644120B1F053A430F
:1047C0001B0B97B27743C01B00D201399FB27743CE
:1047D000C91B170C77433E043F0C801BB941860D63
:1047E0008F023E43664329277F1BFE400C3D7746E0
:1047F000AF40BF1930BCA2B2ABB272437343801A50
:104800009941220C7243130C1204801A9941020040
:104810000B000137001BA941F9D2781E0021F0BD21
:104820000C277F1BFE4077467F0BAF40FF19E0E768
:1048300000245D1C07D0144F7D663966FFE7FFE753
:10484000FFE7FFE73C6F95B29EB265436643401BAE
:10485000B141150C1E0C6543664336042F0C3E43D4
:104860002D04401BB141994204D202000B002000EC
:104870000021F0BD01D19042F7D3801A9941013453
:104880009942F2D3F6E70000000000D0FFFFFFFFDF
:1048900048404140484018B41B4B5B68FC460193BC
:1048A00008BD04DF734B001018B4174B1B68FC469F
:1048B000019308BD00DF7D4B00109446134A926FB0
:1048C000920809D2624618B40F4BDB68FC4601938C
:1048D00008BD0CDF354E00100C4AF0B5146E556E55
:1048E000576F166F6246FFF7EEFF084A146655666B
:1048F00057671667F0BD18B4034B9B68FC460193DD
:1049000008BD08DFD94C001008150020000000D0B9
:10491000FFB550404240504059404B40594000E0A4
:10492000FFB5154F4C00640D03D0BC4204D10C03FD
:1049300014D80020090D09055C00640D03D0BC42A9
:1049400004D11C030AD800221B0D1B0501264B4075
:1049500009D44B4003D58B4200D18242FFBD99421E
:10496000FCD19042FFBD0B43DB1803431343F5D04A
:10497000C9434918FFBD0000FF07000000B5FFF75D
:10498000CFFF804100BDC04600B5FFF7C9FF01D988
:10499000002000BD012000BD00B5FFF7B9FF01D91F
:1049A000002000BD012000BD00B5FFF7B1FF804130
:1049B00000BD012040054A00121804D85A00121800
:1049C00001D8002070470120704700207047000088
:1049D0000021002805D17047C1174840401AFAD07D
:1049E000C90713B5064B1B6898470CBC441CA24072
:1049F0001005120B0349091B09051943114310BD8A
:104A0000081600201F04000010B54C00620D802322
:104A1000D218DB00D21A5B057E2A10DD9E3A13DA2B
:104A2000CC170903490819435242D14064000134AC
:104A30001532202A05DAD0400843604310BD00201B
:104A400010BD0846604310BDC80FC018013810BD26
:104A500018B4044B5B6AFC46019308BD24DF615027
:104A6000001000000815002018B4044BDB6FFC4652
:104A7000019308BD7CDFDD50001000000815002008
:104A800070B513231C78012C0FD0012C0FDC022CE5
:104A900002DC1D4A1D4B9A6470BD99001A481B4ADE
:104AA000885001331F2BF8D9EFE70023FAE71848A5
:104AB000FFF764FC05001748FFF760FC0238037835
:104AC0009B007F2B19DD80222900104800F034FC68
:104AD000022CDCD1104B1A88B5231B029A4209D153
:104AE0000E4B1A880E4B9A4204D10E4B1A880E4B6D
:104AF0009A42CCD00020FDF727FF0C4B0C4A302106
:104B00000C48FDF703FFC046394B00100815002084
:104B1000534400005346000054380000D8380000C9
:104B2000494600009C38000059460000989000104B
:104B300038910010F890001007B56046002800D1A9
:104B400000BE01880A0A0230DF2AFAD1C9B28208FF
:104B500004D3028840880004104300E00068024A41
:104B60005050039007BD0000081500200FB403BC8F
:104B70000CBCF0B50124E407634000E0F0B50C0D77
:104B8000CF0F661E3605891B640503D3C943404217
:104B900000D30131640D03D0661CF60A07D0E41B74
:104BA00000207F00791C89078912803C24031D0D99
:104BB000DF0F6E1E36059B1B6D0503D3DB43524290
:104BC00000D301336D0D03D06E1CF60A07D0ED1B28
:104BD00000227F007B1C9B079B12803D2D032F1B17
:104BE000661B58D4A446202E46DA20371400BC4059
:104BF0001D00BD40F24033412A4380185941CB0F7C
:104C000005D0C943C043002264425041514162462D
:104C10004D0D28D10D0D07D100281FD0241940417A
:104C20004941013A0D0DF9D0640006D3013000D39B
:104C30000131002C01D140084000013A0BD4941CF2
:104C4000E40A04D112051144DB071944F0BDD90769
:104C5000204B194300E0D9070020F0BD0029DDD129
:104C6000002CDBD1F0BD0132C6074008CD07284338
:104C70004908002EE1D0D9E73C2E29DA203E403702
:104C80001400BC4000D00124F24014431A00BB4081
:104C90001C43D317ACE7AC46202F08DA20360400BB
:104CA000B4400D00B540F84039412843A5E73C2FFA
:104CB0000CDA203F40360400B44000D00124F84014
:104CC00004430800B1400C43C117EAE71000190083
:104CD000002494E70000F07FF0B50C0D661E360549
:104CE000891BE60A6405640D02D0651CED0A04D038
:104CF000002001210905803C2403A4461C0D671EE9
:104D00003F05DB1BE70A6405640D02D0651CED0A54
:104D100004D0002201231B05803C24037740644417
:104D200097B484B296B27443070C7E43150C6F435C
:104D300080B26843361802D3012000043F183004C3
:104D4000350C00197D41844688B29AB250430C0C50
:104D500062431F0C7C438EB27E43921902D301261C
:104D60003604A4191604170C3618674101BC81B229
:104D70009AB25143040C62431B0C5C4380B258430B
:104D8000121802D30120000424181004130C401838
:104D900063412D185E410020474106BC88B293B2A2
:104DA00058430C0C6343120C544389B251435B18B3
:104DB00002D301210904641819041A0C091862416C
:104DC0006D1856410020474118BCF902720D11437D
:104DD000F0026A0D1043ED020A0D03D16D19404136
:104DE0004941013B124E9B1B7600B3420ED26D002F
:104DF00007D30130002671416646354301D1400892
:104E000040001B05C918E4072144F0BD0BDA01334B
:104E100006D1013004D101314F0D01D04908F2E72C
:104E2000E1070020F0BD013631050020EBE700006E
:104E3000FF030000F0B51C0D671E3F05DB1BE70AF2
:104E40006405640D02D0661CF60A04D0002201231A
:104E50001B05803C2403D0252D060026F6432E6634
:104E60001E096E66CE0FF619B44649004F0D02D0EA
:104E70007E1CF60A03D000200021403F3F033E1B6A
:104E8000B600B444013F7F05C91B49082E6F0136A7
:104E900076089C02950D25437543ED137543AD13BC
:104EA00001356D10F603761B0CB4CC02450D2C4376
:104EB000A2B2B3B25A43270C7B43350C6F43A4B262
:104EC0006C431B1902D3012424043F191C041D0C3C
:104ED000A4187D4124196D41009A91B2ACB261438E
:104EE000170C7C432B0C5F4392B25A43A41802D395
:104EF00001221204BF182204230C52187B41019C8A
:104F00006C431B19520ED9010A434401A01A81B205
:104F1000B2B2514303145A43360C734387B27743FA
:104F2000D617D21900277E4136049B191704160C98
:104F30007F185E417316ED18F3010026803375412A
:104F4000A90F06D16400690AE8055B0A184309D273
:104F50002FE00422944480337541A90AA8059B0AD6
:104F6000184326D3404149412404009A019B0D0077
:104F70005543641B4343E41A95B286B27543170C3C
:104F80007E43030C5F4392B25A43B61802D3012208
:104F90001204BF183204330C52197B4152429C4117
:104FA000002C02D40022013051414008CA071043AE
:104FB000490802B06246D7079210084BD218084B36
:104FC0009A4203D212058918C919F0BD0020002A9F
:104FD00001DC3900F0BD01331905F5E7FD030000E0
:104FE000FE070000624618CA944600291ADAC01863
:104FF00061415B463B415C46B4405246FA40224325
:1050000044464D4662416B41904699462B46B3401B
:105010003D41FC401C4352465B46A241AB41924697
:105020009B467047C01AA1414B463B414C46B44099
:105030004246FA40224354465D4662416B419246E5
:105040009B462B46B3403D41FC401C4342464B46E9
:10505000A241AB419046994670470020002170471D
:10506000002200B5203200F004F8080000BD000066
:1050700000220B15F1D410B5944600F05DF814141D
:10508000013400DA0021CB17134C20476244343A34
:105090000CD40C2A07DA040091409040524220328E
:1050A000D440214310BDD843D94310BD203207D48A
:1050B0000C469440524220321141D040204310BD52
:1050C0000800C917203203D452422032104110BDCB
:1050D0001800190010BD00008D5000104A00520D3C
:1050E000144BD21A13DDFF2A1EDAD205CB0FDB07D1
:1050F0001A43C300400F0903490A084310435B00E9
:1051000001D301D0013070474308FBD2704702D071
:10511000C80FC00770470A0312130132F8D1420FBB
:10512000072AF5D1012200E0FF22C80F00028018F3
:10513000C0057047800300000A0DCC0F531E1B05ED
:10514000C91A520503D3C943404200D30131520D5D
:1051500003D0531CDB0A07D0121B00206400611C23
:1051600089078912803A1203014BD21A7047000056
:10517000FF03000051434343C9188C46110C83B20E
:105180004B4310B4040C614392B280B2504362436B
:105190001C041B0C001910BC59411304120CC0183C
:1051A0005141614470470000034BDB6FFC461847D8
:1051B0007CDFED52001000000C16002070B51323A8
:1051C0001D782A48FFF7DAF80400012D11D0012DCF
:1051D00009DDA31E1B789B007F2B40DD8022210070
:1051E000234800F0A9F82348FFF7C0F8224B1860C5
:1051F00070BD542201001E4800F09EF81F4B1A8813
:105200001F4B9A421CD1A7239B011A881D4B9A421F
:1052100016D11D4B1A881D4B9A4211D11C4B1A886E
:1052200094239B019A420BD11A4B1A881A4B9A422B
:1052300006D11A4B1A681A4B9A4201D1152307E07E
:105240001848FDF781FB99001748094A8850013337
:105250001F2BF8D9144A064B1A62DA61B7E7134BD1
:10526000134A42211348FDF751FBC0465346000044
:105270000C1600204C33000008160020EE29000018
:10528000C40F0000C20D0000962B0000C0B5000046
:10529000182B0000CC2A000010B50000FC2C0000E8
:1052A00051ED8764908A0010B95200104C910010A3
:1052B000BC9100108091001007B56046002800D115
:1052C00000BE01880A0A0230DF2AFAD1C9B2820878
:1052D00004D3028840880004104300E00068024ABA
:1052E0005050039007BD00000C160020C30FDB07D1
:1052F00041000A0E07D0FF2A08D00909054A89187B
:105300001943400770471900002070470249C91827
:10531000FAE70000000000380000F07F0148042197
:10532000014B1847500500208D430010014B1B68AE
:105330001847000050050020014B5B68184700002B
:1053400050050020F8B507000D001600437C002B27
:1053500002D0002400200CE00368110028009847C8
:105360002DE03B7C10E0022115483B689847601C0B
:105370000134B44214DA002CF3DD2B19013B1B7805
:105380000D3B5A425341DBB22A5D0A2AF0D1002B71
:10539000EED1A042E7DA211A28183B689847E2E7E5
:1053A000B04203DA311A28183B689847002E06DD10
:1053B000AD19013D2B780D3B5A4253413B74F8BD6A
:1053C0004092001070B505000368002B16D00C4BFE
:1053D0001C6805E0290004C92000FFF7B3FFE4685A
:1053E000002C09D02368002BF9D0064B1B68002B3A
:1053F000F0D0A342F3D1EDE700232B6070BDC0468F
:10540000E0100020E410002070B505000C000B68CF
:10541000802B05D021684B1C23606418257170BD5A
:105420000800FFF7CFFFF5E710B582B0D0231B06C9
:1054300000241C5701A9074802F08EFF002806D15E
:10544000019B9C4203D0034802F096FF012002B06A
:1054500010BDC046B405002010B5024802F064FF3C
:1054600010BDC046B4050020F0B5C64600B582B0F8
:1054700006000D001700FFF7D7FF80466B1C02D017
:10548000184B1C6805E0300002F014FF0500F7E738
:10549000E468002C18D02368002BF9D0124B1B684D
:1054A000002B01D0A342F3D12A0031002000FFF7E6
:1054B00049FF002FECD06B46D91D0A230B70012247
:1054C0002000FFF73FFFE3E74346002B06D16B1EAA
:1054D0009D41E8B202B080BCB846F0BDFFF7BCFF0A
:1054E000F5E7C046E0100020E41000200C4B1A68DD
:1054F000130001E01A00DB68002B08D08342F9D1C9
:10550000002903D1DB68D3600023C3607047002902
:10551000FCD0002A01D0D060F8E7014B1860F5E715
:10552000E010002010B5064B1C6801E09847E468C5
:10553000002C03D06368002BF8D1F8E710BDC046FB
:10554000E010002070B5050002F0B4FE0400012256
:1055500001002800FFF788FFFFF7E4FF200070BD7F
:1055600070B5A2B004000E00FFF75EFF05008422B4
:10557000002101A8FFF7DAFE3300220001A9084844
:10558000FEF7DCFE040001A8FFF71CFFFFF7CAFFCF
:10559000002D02D1200022B070BDFFF75DFFF9E7BA
:1055A000095400100FB400B583B004A901C90191DA
:1055B000FFF7D6FF03B008BC04B0184710B500F0E1
:1055C00087F800F0CBF910BDF0B583B005000E00F0
:1055D00000240FE06B46D91D0D230B70002000281E
:1055E00016D193699B06FCD40B781360013001310E
:1055F000F5E70134B44219DA0D4B1A682F5D0D4BF3
:10560000D31859424B415B000B495B5EBB42E1D072
:105610006B46D91D0F7000200028EAD193699B06C4
:10562000FCD40B78136001300131F5E703B0F0BD15
:105630002C1700200080FCBF28170020F0B583B095
:1056400006000F00002004E06B4607331B78237030
:105650002800B84215DA0E4B1A689369102421000D
:1056600019401C420DD1451C34186B46D81D002929
:10567000EAD19369DB06FCD4136803700131013071
:10568000F5E7002801D003B0F0BD0338FBE7C046C2
:105690002C17002070B515001C000B4B1860FBF791
:1056A00065FF002D06DA002C09DA01210748FFF713
:1056B0001DFF70BD02212800FBF738FEF3E7022131
:1056C0002000FBF733FEF0E72C17002060050020D8
:1056D00010B5064B1B78064B1B78E12101230022F5
:1056E00049020448FFF7D6FF10BDC046489A001093
:1056F0004C9A00100040034070470000014B00220C
:105700001A707047461700204B79FF2B0CD18B790C
:10571000002B0BD1CB79012B0AD1082A0AD98A7820
:10572000054B1A70092000E0002070470020FCE7BC
:105730000020FAE70020F8E7461700200120704714
:1057400070B504000D000348FEF710FE03002900A9
:10575000200098475542000010B5002926D1117944
:1057600053791B020B43124909788B4201D0002068
:1057700010BD5378012B03D0022B10D00020F7E787
:105780009178D3781B021943DB0503D54B0A01201E
:10579000984000E000207F231940FFF7D1FF6422EA
:1057A00000210020FDF7EAFC0120E1E70120DFE70E
:1057B00046170020012303700048704784920010B0
:1057C00010B50B784878000218438A781204104309
:1057D000CB781B0603439622D200934200D010BD23
:1057E00000210800FFF7ACFF10B50021054802F0CA
:1057F000B3FD002800D110BD01F02AFC014802F0E1
:1058000093FDF8E710170020F0B5C64600B582B04A
:1058100080460D0001A92E4802F09EFD002808D107
:10582000D0231B061B68019A9A420FD0284802F029
:10583000A3FD002001F06AFE002847D1254B00207F
:10584000002118605960224802F06EFD02B080BC51
:10585000B846F0BD01F0FCFB002001F099FE0020ED
:1058600001F054FE0028EED0002001F013FF0028C4
:105870001DD0AC42E7DA2E1B002001F00BFF020026
:10588000864200DC3200002AE4D043461919002089
:1058900001F0E4FE060001F0DBFB002001F078FEE1
:1058A000A419FCF77FFC0B4B18605960E1E7FCF78B
:1058B00079FC084B1E685F68074A002392197B41F8
:1058C0009942C0D8D5D19042D3D9BCE70024D0E7C3
:1058D00010170020D806002020A1070030B583B0A3
:1058E00005000C0001A9184802F036FD002808D177
:1058F000D0231B061B68019A9A4221D0124802F05D
:105900003BFD002001F002FE002807D10324644281
:105910000D4802F009FD200003B030BD002001F069
:1059200017FE002802D103246442F1E72200290077
:10593000002001F019FE041EEAD103246442E7E7C7
:1059400003246442E7E7C0461017002010B51F206B
:10595000FDF78CF9FA208000002110BD70B584B0ED
:10596000244B1B7802F0E6F823491F20FDF78EF93F
:1059700001211F20FDF772F92048FCF726FDFCF7F6
:1059800087F90600FCF70EFC04000D1E20DBFA224E
:105990009200002312196B41994202D804D190421F
:1059A00002D901225242D317002B17DB01210291A9
:1059B00000210191124900913000FCF77FF90400A9
:1059C000631E9C41E4B200280ED1200004B070BDDB
:1059D0000C4B0D4A3D210D48FCF798FF094B0A4A34
:1059E0003D210A48FCF792FF01210948FFF77EFD9F
:1059F000EBE7C046509A0010E9570010101700203E
:105A00004D5900109C850010BC920010B885001004
:105A100074050020004870475493001000487047F8
:105A20000093001010B50400144B1B78002B0DD010
:105A3000002C10D1124B134A5A80012301335B0012
:105A4000C022920013430E48038010BD11210B4861
:105A500002F0DCFBECE7052C0ED8A4000A4BE4585E
:105A60000023122BEAD8E25C002AE7D00133590068
:105A700003484252DBB2F4E70020E6E7301700208B
:105A8000B8100020090400006893001002007F2075
:105A90001040D209400080184001014BC0187047E7
:105AA000E810002010B582B001AB084A1A8000242B
:105AB00008E001AB185DFFF7E9FF0123C370002385
:105AC00003740134012CF4D902B010BD0080FFFF33
:105AD00010B5828B131C402A00D940239BB2164973
